{
  "address": "0xeee19Fc0674fF898A7F81591554BDf55A69709D2",
  "abi": [
    {
      "inputs": [
        {
          "internalType": "contract SmartWalletFactory",
          "name": "_factory",
          "type": "address"
        }
      ],
      "stateMutability": "nonpayable",
      "type": "constructor"
    },
    {
      "inputs": [
        {
          "internalType": "address",
          "name": "_owner",
          "type": "address"
        }
      ],
      "name": "createWallet",
      "outputs": [
        {
          "internalType": "contract IWallet",
          "name": "",
          "type": "address"
        }
      ],
      "stateMutability": "nonpayable",
      "type": "function"
    },
    {
      "inputs": [
        {
          "internalType": "address",
          "name": "_owner",
          "type": "address"
        },
        {
          "internalType": "uint256",
          "name": "_nonce",
          "type": "uint256"
        }
      ],
      "name": "walletAddress",
      "outputs": [
        {
          "internalType": "address",
          "name": "",
          "type": "address"
        }
      ],
      "stateMutability": "view",
      "type": "function"
    }
  ],
  "transactionHash": "0x68749d3442a3a037c0410a2c039557185163f21b81bb3be90d227bb01c93d11f",
  "args": [
    "0x657Ba26E1A251c0806dE5f99d7A2D84C08E581b9"
  ],
  "numDeployments": 1,
  "solcInputHash": "d9544ae2bcddb30ef6c72271937f926f",
  "bytecode": "0x608060405234801561001057600080fd5b506040516200380938038062003809833981810160405281019061003491906101f4565b60405161004090610171565b604051809103906000f08015801561005c573d6000803e3d6000fd5b50600160006101000a81548173ffffffffffffffffffffffffffffffffffffffff021916908373ffffffffffffffffffffffffffffffffffffffff160217905550600160009054906101000a900473ffffffffffffffffffffffffffffffffffffffff1673ffffffffffffffffffffffffffffffffffffffff1663df80213260006040518263ffffffff1660e01b81526004016100f99190610230565b600060405180830381600087803b15801561011357600080fd5b505af1158015610127573d6000803e3d6000fd5b50505050806000806101000a81548173ffffffffffffffffffffffffffffffffffffffff021916908373ffffffffffffffffffffffffffffffffffffffff1602179055505061024b565b612ec1806200094883390190565b600080fd5b600073ffffffffffffffffffffffffffffffffffffffff82169050919050565b60006101af82610184565b9050919050565b60006101c1826101a4565b9050919050565b6101d1816101b6565b81146101dc57600080fd5b50565b6000815190506101ee816101c8565b92915050565b60006020828403121561020a5761020961017f565b5b6000610218848285016101df565b91505092915050565b61022a816101a4565b82525050565b60006020820190506102456000830184610221565b92915050565b6106ed806200025b6000396000f3fe608060405234801561001057600080fd5b50600436106100365760003560e01c80631238ac7c1461003b578063b054a9e81461006b575b600080fd5b610055600480360381019061005091906103d1565b61009b565b6040516100629190610420565b60405180910390f35b6100856004803603810190610080919061043b565b6101ea565b60405161009291906104c7565b60405180910390f35b60008060009054906101000a900473ffffffffffffffffffffffffffffffffffffffff1673ffffffffffffffffffffffffffffffffffffffff1663d1e64ad7600160009054906101000a900473ffffffffffffffffffffffffffffffffffffffff1663df80213260e01b866040516024016101169190610420565b604051602081830303815290604052907bffffffffffffffffffffffffffffffffffffffffffffffffffffffff19166020820180517bffffffffffffffffffffffffffffffffffffffffffffffffffffffff8381831617835250505050856040518463ffffffff1660e01b81526004016101929392919061058a565b60206040518083038186803b1580156101aa57600080fd5b505afa1580156101be573d6000803e3d6000fd5b505050506040513d601f19601f820116820180604052508101906101e291906105dd565b905092915050565b60008060009054906101000a900473ffffffffffffffffffffffffffffffffffffffff1673ffffffffffffffffffffffffffffffffffffffff1663eebc8e19600160009054906101000a900473ffffffffffffffffffffffffffffffffffffffff1663df80213260e01b856040516024016102659190610420565b604051602081830303815290604052907bffffffffffffffffffffffffffffffffffffffffffffffffffffffff19166020820180517bffffffffffffffffffffffffffffffffffffffffffffffffffffffff83818316178352505050506040518363ffffffff1660e01b81526004016102df92919061060a565b602060405180830381600087803b1580156102f957600080fd5b505af115801561030d573d6000803e3d6000fd5b505050506040513d601f19601f82011682018060405250810190610331919061068a565b9050919050565b600080fd5b600073ffffffffffffffffffffffffffffffffffffffff82169050919050565b60006103688261033d565b9050919050565b6103788161035d565b811461038357600080fd5b50565b6000813590506103958161036f565b92915050565b6000819050919050565b6103ae8161039b565b81146103b957600080fd5b50565b6000813590506103cb816103a5565b92915050565b600080604083850312156103e8576103e7610338565b5b60006103f685828601610386565b9250506020610407858286016103bc565b9150509250929050565b61041a8161035d565b82525050565b60006020820190506104356000830184610411565b92915050565b60006020828403121561045157610450610338565b5b600061045f84828501610386565b91505092915050565b6000819050919050565b600061048d6104886104838461033d565b610468565b61033d565b9050919050565b600061049f82610472565b9050919050565b60006104b182610494565b9050919050565b6104c1816104a6565b82525050565b60006020820190506104dc60008301846104b8565b92915050565b600081519050919050565b600082825260208201905092915050565b60005b8381101561051c578082015181840152602081019050610501565b8381111561052b576000848401525b50505050565b6000601f19601f8301169050919050565b600061054d826104e2565b61055781856104ed565b93506105678185602086016104fe565b61057081610531565b840191505092915050565b6105848161039b565b82525050565b600060608201905061059f6000830186610411565b81810360208301526105b18185610542565b90506105c0604083018461057b565b949350505050565b6000815190506105d78161036f565b92915050565b6000602082840312156105f3576105f2610338565b5b6000610601848285016105c8565b91505092915050565b600060408201905061061f6000830185610411565b81810360208301526106318184610542565b90509392505050565b60006106458261033d565b9050919050565b60006106578261063a565b9050919050565b6106678161064c565b811461067257600080fd5b50565b6000815190506106848161065e565b92915050565b6000602082840312156106a05761069f610338565b5b60006106ae84828501610675565b9150509291505056fea2646970667358221220cfb8d7c2dbe010ff7a2e02c0a858589fbcee51e396b5ce973050e12d769e270564736f6c6343000809003360a06040523073ffffffffffffffffffffffffffffffffffffffff1660809073ffffffffffffffffffffffffffffffffffffffff1681525034801561004357600080fd5b50608051612e4661007b60003960008181610322015281816103b1015281816104ab0152818161053a01526105ea0152612e466000f3fe60806040526004361061008a5760003560e01c806372d87c8f1161005957806372d87c8f146101915780638901e25b146101ba5780638da5cb5b146101d1578063affed0e0146101fc578063df80213214610227576100df565b8063252f5a17146100e45780633659cfe6146101215780634f1ef2861461014a57806352d1902d14610166576100df565b366100df573373ffffffffffffffffffffffffffffffffffffffff167f3317af6e3247959c45cb6051f9153437a9072683e21eda1f9b52c5bcec0e89c2346040516100d59190611889565b60405180910390a2005b600080fd5b3480156100f057600080fd5b5061010b600480360381019061010691906118e4565b610250565b604051610118919061192a565b60405180910390f35b34801561012d57600080fd5b50610148600480360381019061014391906119a3565b610320565b005b610164600480360381019061015f9190611b16565b6104a9565b005b34801561017257600080fd5b5061017b6105e6565b604051610188919061192a565b60405180910390f35b34801561019d57600080fd5b506101b860048036038101906101b39190611c28565b61069f565b005b3480156101c657600080fd5b506101cf61084e565b005b3480156101dd57600080fd5b506101e661098c565b6040516101f39190611cb8565b60405180910390f35b34801561020857600080fd5b506102116109bf565b60405161021e9190611889565b60405180910390f35b34801561023357600080fd5b5061024e600480360381019061024991906119a3565b6109f8565b005b60007f8b73c3c69bb8fe3d512ecc4cf759cc79239f7b179b0ffacaa9a75d522b39400f6040518060400160405280600b81526020017f454344534157616c6c6574000000000000000000000000000000000000000000815250805190602001206040518060400160405280600581526020017f302e302e31000000000000000000000000000000000000000000000000000000815250805190602001208430604051602001610303959493929190611cd3565b604051602081830303815290604052805190602001209050919050565b7f000000000000000000000000000000000000000000000000000000000000000073ffffffffffffffffffffffffffffffffffffffff163073ffffffffffffffffffffffffffffffffffffffff1614156103af576040517f08c379a00000000000000000000000000000000000000000000000000000000081526004016103a690611da9565b60405180910390fd5b7f000000000000000000000000000000000000000000000000000000000000000073ffffffffffffffffffffffffffffffffffffffff166103ee610b40565b73ffffffffffffffffffffffffffffffffffffffff1614610444576040517f08c379a000000000000000000000000000000000000000000000000000000000815260040161043b90611e3b565b60405180910390fd5b61044d81610b97565b6104a681600067ffffffffffffffff81111561046c5761046b6119eb565b5b6040519080825280601f01601f19166020018201604052801561049e5781602001600182028036833780820191505090505b506000610bd2565b50565b7f000000000000000000000000000000000000000000000000000000000000000073ffffffffffffffffffffffffffffffffffffffff163073ffffffffffffffffffffffffffffffffffffffff161415610538576040517f08c379a000000000000000000000000000000000000000000000000000000000815260040161052f90611da9565b60405180910390fd5b7f000000000000000000000000000000000000000000000000000000000000000073ffffffffffffffffffffffffffffffffffffffff16610577610b40565b73ffffffffffffffffffffffffffffffffffffffff16146105cd576040517f08c379a00000000000000000000000000000000000000000000000000000000081526004016105c490611e3b565b60405180910390fd5b6105d682610b97565b6105e282826001610bd2565b5050565b60007f000000000000000000000000000000000000000000000000000000000000000073ffffffffffffffffffffffffffffffffffffffff163073ffffffffffffffffffffffffffffffffffffffff1614610676576040517f08c379a000000000000000000000000000000000000000000000000000000000815260040161066d90611ecd565b60405180910390fd5b7f360894a13ba1a3210667c828492db98dca3e2076cc3735a920a3ca505d382bbc60001b905090565b6106f98484906106af919061202a565b83838080601f016020809104026020016040519081016040528093929190818152602001838380828437600081840152601f19601f82011690508083019250505050505050610d4f565b610701610e98565b60005b848490508163ffffffff1610156108475784848263ffffffff1681811061072e5761072d61203f565b5b9050602002810190610740919061207d565b60200135471015610786576040517f08c379a000000000000000000000000000000000000000000000000000000000815260040161077d90612117565b60405180910390fd5b61083485858363ffffffff168181106107a2576107a161203f565b5b90506020028101906107b4919061207d565b60000160208101906107c691906119a3565b86868463ffffffff168181106107df576107de61203f565b5b90506020028101906107f1919061207d565b6020013587878563ffffffff1681811061080e5761080d61203f565b5b9050602002810190610820919061207d565b806040019061082f9190612137565b610efc565b808061083f906121d9565b915050610704565b5050505050565b60008060019054906101000a900460ff1615905080801561087f5750600160008054906101000a900460ff1660ff16105b806108ac575061088e30610fd5565b1580156108ab5750600160008054906101000a900460ff1660ff16145b5b6108eb576040517f08c379a00000000000000000000000000000000000000000000000000000000081526004016108e290612278565b60405180910390fd5b60016000806101000a81548160ff021916908360ff1602179055508015610928576001600060016101000a81548160ff0219169083151502179055505b610930610ff8565b80156109895760008060016101000a81548160ff0219169083151502179055507f7f26b83ff96e1f2b6a682f133852f6798a09c465da95921460cefb3847402498600160405161098091906122ea565b60405180910390a15b50565b60006109966110a1565b60000160009054906101000a900473ffffffffffffffffffffffffffffffffffffffff16905090565b60006109c96110a1565b60000160149054906101000a90046bffffffffffffffffffffffff166bffffffffffffffffffffffff16905090565b60008060019054906101000a900460ff16159050808015610a295750600160008054906101000a900460ff1660ff16105b80610a565750610a3830610fd5565b158015610a555750600160008054906101000a900460ff1660ff16145b5b610a95576040517f08c379a0000000000000000000000000000000000000000000000000000000008152600401610a8c90612278565b60405180910390fd5b60016000806101000a81548160ff021916908360ff1602179055508015610ad2576001600060016101000a81548160ff0219169083151502179055505b610ada610ff8565b610ae3826110ce565b8015610b3c5760008060016101000a81548160ff0219169083151502179055507f7f26b83ff96e1f2b6a682f133852f6798a09c465da95921460cefb38474024986001604051610b3391906122ea565b60405180910390a15b5050565b6000610b6e7f360894a13ba1a3210667c828492db98dca3e2076cc3735a920a3ca505d382bbc60001b61116a565b60000160009054906101000a900473ffffffffffffffffffffffffffffffffffffffff16905090565b3073ffffffffffffffffffffffffffffffffffffffff163373ffffffffffffffffffffffffffffffffffffffff1614610bcf57600080fd5b50565b610bfe7f4910fdfa16fed3260ed0e7147f7cc6da11a60208b5b9406d12a635614ffd914360001b611174565b60000160009054906101000a900460ff1615610c2257610c1d8361117e565b610d4a565b8273ffffffffffffffffffffffffffffffffffffffff166352d1902d6040518163ffffffff1660e01b815260040160206040518083038186803b158015610c6857600080fd5b505afa925050508015610c9957506040513d601f19601f82011682018060405250810190610c969190612331565b60015b610cd8576040517f08c379a0000000000000000000000000000000000000000000000000000000008152600401610ccf906123d0565b60405180910390fd5b7f360894a13ba1a3210667c828492db98dca3e2076cc3735a920a3ca505d382bbc60001b8114610d3d576040517f08c379a0000000000000000000000000000000000000000000000000000000008152600401610d3490612462565b60405180910390fd5b50610d49838383611237565b5b505050565b60008082806020019051810190610d66919061253a565b915091506000610df682610de87f7b253295b5dfff9d0fc334143cf4781476ceb0801f093453e989c297bcb5da46610d9d89611263565b610da56109bf565b4689604051602001610dbb959493929190612596565b60405160208183030381529060405280519060200120610dda87610250565b6113ce90919063ffffffff16565b61140190919063ffffffff16565b90508073ffffffffffffffffffffffffffffffffffffffff16610e176110a1565b60000160009054906101000a900473ffffffffffffffffffffffffffffffffffffffff1673ffffffffffffffffffffffffffffffffffffffff1614610e91576040517f08c379a0000000000000000000000000000000000000000000000000000000008152600401610e889061265b565b60405180910390fd5b5050505050565b610ea06110a1565b600001601481819054906101000a90046bffffffffffffffffffffffff1680929190610ecb90612693565b91906101000a8154816bffffffffffffffffffffffff02191690836bffffffffffffffffffffffff16021790555050565b6000808573ffffffffffffffffffffffffffffffffffffffff16858585604051610f279291906126f8565b60006040518083038185875af1925050503d8060008114610f64576040519150601f19603f3d011682016040523d82523d6000602084013e610f69565b606091505b50915091508573ffffffffffffffffffffffffffffffffffffffff167f202ca0633e9bf52b1d9ffc5784badd7db89fdd8a05bea524c99853429017f7ae868686604051610fb89392919061274f565b60405180910390a281610fcd57805160208201fd5b505050505050565b6000808273ffffffffffffffffffffffffffffffffffffffff163b119050919050565b600060019054906101000a900460ff16611047576040517f08c379a000000000000000000000000000000000000000000000000000000000815260040161103e906127f3565b60405180910390fd5b600047111561109f573373ffffffffffffffffffffffffffffffffffffffff167f3317af6e3247959c45cb6051f9153437a9072683e21eda1f9b52c5bcec0e89c2476040516110969190611889565b60405180910390a25b565b6000807f3c344650e40c6608a176dc19a4b7c111d92b7e4d03081787ac55837ca120d11b90508091505090565b600060019054906101000a900460ff1661111d576040517f08c379a0000000000000000000000000000000000000000000000000000000008152600401611114906127f3565b60405180910390fd5b806111266110a1565b60000160006101000a81548173ffffffffffffffffffffffffffffffffffffffff021916908373ffffffffffffffffffffffffffffffffffffffff16021790555050565b6000819050919050565b6000819050919050565b61118781610fd5565b6111c6576040517f08c379a00000000000000000000000000000000000000000000000000000000081526004016111bd90612885565b60405180910390fd5b806111f37f360894a13ba1a3210667c828492db98dca3e2076cc3735a920a3ca505d382bbc60001b61116a565b60000160006101000a81548173ffffffffffffffffffffffffffffffffffffffff021916908373ffffffffffffffffffffffffffffffffffffffff16021790555050565b61124083611428565b60008251118061124d5750805b1561125e5761125c8383611477565b505b505050565b600080825167ffffffffffffffff811115611281576112806119eb565b5b6040519080825280602002602001820160405280156112af5781602001602082028036833780820191505090505b50905060005b835181101561139e577f8de9c86fbdd52e2efe5d4e29fd947a8389e0d8945fed5eef2d0dff9745e601c78482815181106112f2576112f161203f565b5b6020026020010151600001518583815181106113115761131061203f565b5b6020026020010151602001518684815181106113305761132f61203f565b5b6020026020010151604001518051906020012060405160200161135694939291906128a5565b6040516020818303038152906040528051906020012082828151811061137f5761137e61203f565b5b6020026020010181815250508080611396906128ea565b9150506112b5565b50806040516020016113b091906129eb565b60405160208183030381529060405280519060200120915050919050565b600082826040516020016113e3929190612a7a565b60405160208183030381529060405280519060200120905092915050565b6000806000611410858561155b565b9150915061141d816115ad565b819250505092915050565b6114318161117e565b8073ffffffffffffffffffffffffffffffffffffffff167fbc7cd75a20ee27fd9adebab32041f755214dbc6bffa90cc0225b39da2e5c2d3b60405160405180910390a250565b606061148283610fd5565b6114c1576040517f08c379a00000000000000000000000000000000000000000000000000000000081526004016114b890612b23565b60405180910390fd5b6000808473ffffffffffffffffffffffffffffffffffffffff16846040516114e99190612b7f565b600060405180830381855af49150503d8060008114611524576040519150601f19603f3d011682016040523d82523d6000602084013e611529565b606091505b50915091506115518282604051806060016040528060278152602001612dea6027913961171b565b9250505092915050565b60008060418351141561159d5760008060006020860151925060408601519150606086015160001a90506115918782858561173d565b945094505050506115a6565b60006002915091505b9250929050565b600060048111156115c1576115c0612b96565b5b8160048111156115d4576115d3612b96565b5b14156115df57611718565b600160048111156115f3576115f2612b96565b5b81600481111561160657611605612b96565b5b1415611647576040517f08c379a000000000000000000000000000000000000000000000000000000000815260040161163e90612c11565b60405180910390fd5b6002600481111561165b5761165a612b96565b5b81600481111561166e5761166d612b96565b5b14156116af576040517f08c379a00000000000000000000000000000000000000000000000000000000081526004016116a690612c7d565b60405180910390fd5b600360048111156116c3576116c2612b96565b5b8160048111156116d6576116d5612b96565b5b1415611717576040517f08c379a000000000000000000000000000000000000000000000000000000000815260040161170e90612d0f565b60405180910390fd5b5b50565b6060831561172b57829050611736565b6117358383611820565b5b9392505050565b6000807f7fffffffffffffffffffffffffffffff5d576e7357a4501ddfe92f46681b20a08360001c1115611778576000600391509150611817565b60006001878787876040516000815260200160405260405161179d9493929190612d3e565b6020604051602081039080840390855afa1580156117bf573d6000803e3d6000fd5b505050602060405103519050600073ffffffffffffffffffffffffffffffffffffffff168173ffffffffffffffffffffffffffffffffffffffff16141561180e57600060019250925050611817565b80600092509250505b94509492505050565b6000825111156118335781518083602001fd5b806040517f08c379a00000000000000000000000000000000000000000000000000000000081526004016118679190612dc7565b60405180910390fd5b6000819050919050565b61188381611870565b82525050565b600060208201905061189e600083018461187a565b92915050565b6000604051905090565b600080fd5b600080fd5b6118c181611870565b81146118cc57600080fd5b50565b6000813590506118de816118b8565b92915050565b6000602082840312156118fa576118f96118ae565b5b6000611908848285016118cf565b91505092915050565b6000819050919050565b61192481611911565b82525050565b600060208201905061193f600083018461191b565b92915050565b600073ffffffffffffffffffffffffffffffffffffffff82169050919050565b600061197082611945565b9050919050565b61198081611965565b811461198b57600080fd5b50565b60008135905061199d81611977565b92915050565b6000602082840312156119b9576119b86118ae565b5b60006119c78482850161198e565b91505092915050565b600080fd5b600080fd5b6000601f19601f8301169050919050565b7f4e487b7100000000000000000000000000000000000000000000000000000000600052604160045260246000fd5b611a23826119da565b810181811067ffffffffffffffff82111715611a4257611a416119eb565b5b80604052505050565b6000611a556118a4565b9050611a618282611a1a565b919050565b600067ffffffffffffffff821115611a8157611a806119eb565b5b611a8a826119da565b9050602081019050919050565b82818337600083830152505050565b6000611ab9611ab484611a66565b611a4b565b905082815260208101848484011115611ad557611ad46119d5565b5b611ae0848285611a97565b509392505050565b600082601f830112611afd57611afc6119d0565b5b8135611b0d848260208601611aa6565b91505092915050565b60008060408385031215611b2d57611b2c6118ae565b5b6000611b3b8582860161198e565b925050602083013567ffffffffffffffff811115611b5c57611b5b6118b3565b5b611b6885828601611ae8565b9150509250929050565b600080fd5b600080fd5b60008083601f840112611b9257611b916119d0565b5b8235905067ffffffffffffffff811115611baf57611bae611b72565b5b602083019150836020820283011115611bcb57611bca611b77565b5b9250929050565b60008083601f840112611be857611be76119d0565b5b8235905067ffffffffffffffff811115611c0557611c04611b72565b5b602083019150836001820283011115611c2157611c20611b77565b5b9250929050565b60008060008060408587031215611c4257611c416118ae565b5b600085013567ffffffffffffffff811115611c6057611c5f6118b3565b5b611c6c87828801611b7c565b9450945050602085013567ffffffffffffffff811115611c8f57611c8e6118b3565b5b611c9b87828801611bd2565b925092505092959194509250565b611cb281611965565b82525050565b6000602082019050611ccd6000830184611ca9565b92915050565b600060a082019050611ce8600083018861191b565b611cf5602083018761191b565b611d02604083018661191b565b611d0f606083018561187a565b611d1c6080830184611ca9565b9695505050505050565b600082825260208201905092915050565b7f46756e6374696f6e206d7573742062652063616c6c6564207468726f7567682060008201527f64656c656761746563616c6c0000000000000000000000000000000000000000602082015250565b6000611d93602c83611d26565b9150611d9e82611d37565b604082019050919050565b60006020820190508181036000830152611dc281611d86565b9050919050565b7f46756e6374696f6e206d7573742062652063616c6c6564207468726f7567682060008201527f6163746976652070726f78790000000000000000000000000000000000000000602082015250565b6000611e25602c83611d26565b9150611e3082611dc9565b604082019050919050565b60006020820190508181036000830152611e5481611e18565b9050919050565b7f555550535570677261646561626c653a206d757374206e6f742062652063616c60008201527f6c6564207468726f7567682064656c656761746563616c6c0000000000000000602082015250565b6000611eb7603883611d26565b9150611ec282611e5b565b604082019050919050565b60006020820190508181036000830152611ee681611eaa565b9050919050565b600067ffffffffffffffff821115611f0857611f076119eb565b5b602082029050602081019050919050565b600080fd5b600080fd5b600060608284031215611f3957611f38611f19565b5b611f436060611a4b565b90506000611f538482850161198e565b6000830152506020611f67848285016118cf565b602083015250604082013567ffffffffffffffff811115611f8b57611f8a611f1e565b5b611f9784828501611ae8565b60408301525092915050565b6000611fb6611fb184611eed565b611a4b565b90508083825260208201905060208402830185811115611fd957611fd8611b77565b5b835b8181101561202057803567ffffffffffffffff811115611ffe57611ffd6119d0565b5b80860161200b8982611f23565b85526020850194505050602081019050611fdb565b5050509392505050565b6000612037368484611fa3565b905092915050565b7f4e487b7100000000000000000000000000000000000000000000000000000000600052603260045260246000fd5b600080fd5b600080fd5b600080fd5b6000823560016060038336030381126120995761209861206e565b5b80830191505092915050565b7f536d61727457616c6c65743a20696e73756666696369656e742062617365206160008201527f737365742062616c616e63650000000000000000000000000000000000000000602082015250565b6000612101602c83611d26565b915061210c826120a5565b604082019050919050565b60006020820190508181036000830152612130816120f4565b9050919050565b600080833560016020038436030381126121545761215361206e565b5b80840192508235915067ffffffffffffffff82111561217657612175612073565b5b60208301925060018202360383131561219257612191612078565b5b509250929050565b7f4e487b7100000000000000000000000000000000000000000000000000000000600052601160045260246000fd5b600063ffffffff82169050919050565b60006121e4826121c9565b915063ffffffff8214156121fb576121fa61219a565b5b600182019050919050565b7f496e697469616c697a61626c653a20636f6e747261637420697320616c72656160008201527f647920696e697469616c697a6564000000000000000000000000000000000000602082015250565b6000612262602e83611d26565b915061226d82612206565b604082019050919050565b6000602082019050818103600083015261229181612255565b9050919050565b6000819050919050565b600060ff82169050919050565b6000819050919050565b60006122d46122cf6122ca84612298565b6122af565b6122a2565b9050919050565b6122e4816122b9565b82525050565b60006020820190506122ff60008301846122db565b92915050565b61230e81611911565b811461231957600080fd5b50565b60008151905061232b81612305565b92915050565b600060208284031215612347576123466118ae565b5b60006123558482850161231c565b91505092915050565b7f45524331393637557067726164653a206e657720696d706c656d656e7461746960008201527f6f6e206973206e6f742055555053000000000000000000000000000000000000602082015250565b60006123ba602e83611d26565b91506123c58261235e565b604082019050919050565b600060208201905081810360008301526123e9816123ad565b9050919050565b7f45524331393637557067726164653a20756e737570706f727465642070726f7860008201527f6961626c65555549440000000000000000000000000000000000000000000000602082015250565b600061244c602983611d26565b9150612457826123f0565b604082019050919050565b6000602082019050818103600083015261247b8161243f565b9050919050565b600081519050612491816118b8565b92915050565b60005b838110156124b557808201518184015260208101905061249a565b838111156124c4576000848401525b50505050565b60006124dd6124d884611a66565b611a4b565b9050828152602081018484840111156124f9576124f86119d5565b5b612504848285612497565b509392505050565b600082601f830112612521576125206119d0565b5b81516125318482602086016124ca565b91505092915050565b60008060408385031215612551576125506118ae565b5b600061255f85828601612482565b925050602083015167ffffffffffffffff8111156125805761257f6118b3565b5b61258c8582860161250c565b9150509250929050565b600060a0820190506125ab600083018861191b565b6125b8602083018761191b565b6125c5604083018661187a565b6125d2606083018561187a565b6125df608083018461187a565b9695505050505050565b7f454344534157616c6c65743a206661696c656420746f2076657269667920736960008201527f676e617475726500000000000000000000000000000000000000000000000000602082015250565b6000612645602783611d26565b9150612650826125e9565b604082019050919050565b6000602082019050818103600083015261267481612638565b9050919050565b60006bffffffffffffffffffffffff82169050919050565b600061269e8261267b565b91506bffffffffffffffffffffffff8214156126bd576126bc61219a565b5b600182019050919050565b600081905092915050565b60006126df83856126c8565b93506126ec838584611a97565b82840190509392505050565b60006127058284866126d3565b91508190509392505050565b600082825260208201905092915050565b600061272e8385612711565b935061273b838584611a97565b612744836119da565b840190509392505050565b6000604082019050612764600083018661187a565b8181036020830152612777818486612722565b9050949350505050565b7f496e697469616c697a61626c653a20636f6e7472616374206973206e6f74206960008201527f6e697469616c697a696e67000000000000000000000000000000000000000000602082015250565b60006127dd602b83611d26565b91506127e882612781565b604082019050919050565b6000602082019050818103600083015261280c816127d0565b9050919050565b7f455243313936373a206e657720696d706c656d656e746174696f6e206973206e60008201527f6f74206120636f6e747261637400000000000000000000000000000000000000602082015250565b600061286f602d83611d26565b915061287a82612813565b604082019050919050565b6000602082019050818103600083015261289e81612862565b9050919050565b60006080820190506128ba600083018761191b565b6128c76020830186611ca9565b6128d4604083018561187a565b6128e1606083018461191b565b95945050505050565b60006128f582611870565b91507fffffffffffffffffffffffffffffffffffffffffffffffffffffffffffffffff8214156129285761292761219a565b5b600182019050919050565b600081519050919050565b600081905092915050565b6000819050602082019050919050565b61296281611911565b82525050565b60006129748383612959565b60208301905092915050565b6000602082019050919050565b600061299882612933565b6129a2818561293e565b93506129ad83612949565b8060005b838110156129de5781516129c58882612968565b97506129d083612980565b9250506001810190506129b1565b5085935050505092915050565b60006129f7828461298d565b915081905092915050565b600081905092915050565b7f1901000000000000000000000000000000000000000000000000000000000000600082015250565b6000612a43600283612a02565b9150612a4e82612a0d565b600282019050919050565b6000819050919050565b612a74612a6f82611911565b612a59565b82525050565b6000612a8582612a36565b9150612a918285612a63565b602082019150612aa18284612a63565b6020820191508190509392505050565b7f416464726573733a2064656c65676174652063616c6c20746f206e6f6e2d636f60008201527f6e74726163740000000000000000000000000000000000000000000000000000602082015250565b6000612b0d602683611d26565b9150612b1882612ab1565b604082019050919050565b60006020820190508181036000830152612b3c81612b00565b9050919050565b600081519050919050565b6000612b5982612b43565b612b6381856126c8565b9350612b73818560208601612497565b80840191505092915050565b6000612b8b8284612b4e565b915081905092915050565b7f4e487b7100000000000000000000000000000000000000000000000000000000600052602160045260246000fd5b7f45434453413a20696e76616c6964207369676e61747572650000000000000000600082015250565b6000612bfb601883611d26565b9150612c0682612bc5565b602082019050919050565b60006020820190508181036000830152612c2a81612bee565b9050919050565b7f45434453413a20696e76616c6964207369676e6174757265206c656e67746800600082015250565b6000612c67601f83611d26565b9150612c7282612c31565b602082019050919050565b60006020820190508181036000830152612c9681612c5a565b9050919050565b7f45434453413a20696e76616c6964207369676e6174757265202773272076616c60008201527f7565000000000000000000000000000000000000000000000000000000000000602082015250565b6000612cf9602283611d26565b9150612d0482612c9d565b604082019050919050565b60006020820190508181036000830152612d2881612cec565b9050919050565b612d38816122a2565b82525050565b6000608082019050612d53600083018761191b565b612d606020830186612d2f565b612d6d604083018561191b565b612d7a606083018461191b565b95945050505050565b600081519050919050565b6000612d9982612d83565b612da38185611d26565b9350612db3818560208601612497565b612dbc816119da565b840191505092915050565b60006020820190508181036000830152612de18184612d8e565b90509291505056fe416464726573733a206c6f772d6c6576656c2064656c65676174652063616c6c206661696c6564a264697066735822122008d3a999d28f83df7d1c1ccf3dded7da3b1c374603f9f9ccaf583934e67dc61b64736f6c63430008090033",
  "devdoc": {
    "kind": "dev",
    "methods": {},
    "version": 1
  },
  "userdoc": {
    "kind": "user",
    "methods": {},
    "version": 1
  },
  "storageLayout": {
    "storage": [
      {
        "astId": 3533,
        "contract": "contracts/ECDSAWalletFactory.sol:ECDSAWalletFactory",
        "label": "factory",
        "offset": 0,
        "slot": "0",
        "type": "t_contract(SmartWalletFactory)3999"
      },
      {
        "astId": 3536,
        "contract": "contracts/ECDSAWalletFactory.sol:ECDSAWalletFactory",
        "label": "wallet",
        "offset": 0,
        "slot": "1",
        "type": "t_contract(ECDSAWallet)3526"
      }
    ],
    "types": {
      "t_contract(ECDSAWallet)3526": {
        "encoding": "inplace",
        "label": "contract ECDSAWallet",
        "numberOfBytes": "20"
      },
      "t_contract(SmartWalletFactory)3999": {
        "encoding": "inplace",
        "label": "contract SmartWalletFactory",
        "numberOfBytes": "20"
      }
    }
  }
}