{
  "address": "0x657Ba26E1A251c0806dE5f99d7A2D84C08E581b9",
  "abi": [
    {
      "inputs": [],
      "stateMutability": "nonpayable",
      "type": "constructor"
    },
    {
      "anonymous": false,
      "inputs": [
        {
          "indexed": true,
          "internalType": "address",
          "name": "_wallet",
          "type": "address"
        },
        {
          "indexed": true,
          "internalType": "bytes32",
          "name": "_callID",
          "type": "bytes32"
        }
      ],
      "name": "WalletCreated",
      "type": "event"
    },
    {
      "inputs": [
        {
          "internalType": "address",
          "name": "_impl",
          "type": "address"
        },
        {
          "internalType": "bytes",
          "name": "_call",
          "type": "bytes"
        }
      ],
      "name": "createWallet",
      "outputs": [
        {
          "internalType": "contract IWallet",
          "name": "",
          "type": "address"
        }
      ],
      "stateMutability": "nonpayable",
      "type": "function"
    },
    {
      "inputs": [
        {
          "internalType": "address",
          "name": "_impl",
          "type": "address"
        },
        {
          "internalType": "bytes",
          "name": "_call",
          "type": "bytes"
        },
        {
          "internalType": "uint256",
          "name": "_nonce",
          "type": "uint256"
        }
      ],
      "name": "walletAddress",
      "outputs": [
        {
          "internalType": "address",
          "name": "",
          "type": "address"
        }
      ],
      "stateMutability": "view",
      "type": "function"
    }
  ],
  "transactionHash": "0x83a1c204fadfd2e2c1cbc91083183d96a2210efe470d3e9f4f9c5149b7e64c9c",
  "args": [],
  "numDeployments": 1,
  "solcInputHash": "d9544ae2bcddb30ef6c72271937f926f",
  "bytecode": "0x608060405234801561001057600080fd5b50611600806100206000396000f3fe60806040523480156200001157600080fd5b50600436106200003a5760003560e01c8063d1e64ad7146200003f578063eebc8e191462000075575b600080fd5b6200005d6004803603810190620000579190620004aa565b620000ab565b6040516200006c919062000536565b60405180910390f35b6200009360048036038101906200008d919062000553565b62000194565b604051620000a2919062000624565b60405180910390f35b6000808380519060200120905060ff60f81b308285604051602001620000d39291906200066d565b6040516020818303038152906040528051906020012060405180602001620000fb9062000286565b6020820181038252601f19601f820116604052508888604051602001620001249291906200072d565b60405160208183030381529060405260405160200162000146929190620007a3565b6040516020818303038152906040528051906020012060405160200162000171949392919062000891565b6040516020818303038152906040528051906020012060001c9150509392505050565b600080828051906020012090506000816000808481526020019081526020016000206000815480929190620001c99062000916565b91905055604051602001620001e09291906200066d565b604051602081830303815290604052805190602001208585604051620002069062000286565b620002139291906200072d565b8190604051809103906000f590508015801562000234573d6000803e3d6000fd5b509050818173ffffffffffffffffffffffffffffffffffffffff167fc71ce9687e4bf252667e23b2b1cb9433c5357a590c7f9ff6db754257a0be60c160405160405180910390a3809250505092915050565b610c66806200096583390190565b6000604051905090565b600080fd5b600080fd5b600073ffffffffffffffffffffffffffffffffffffffff82169050919050565b6000620002d582620002a8565b9050919050565b620002e781620002c8565b8114620002f357600080fd5b50565b6000813590506200030781620002dc565b92915050565b600080fd5b600080fd5b6000601f19601f8301169050919050565b7f4e487b7100000000000000000000000000000000000000000000000000000000600052604160045260246000fd5b620003628262000317565b810181811067ffffffffffffffff8211171562000384576200038362000328565b5b80604052505050565b60006200039962000294565b9050620003a7828262000357565b919050565b600067ffffffffffffffff821115620003ca57620003c962000328565b5b620003d58262000317565b9050602081019050919050565b82818337600083830152505050565b6000620004086200040284620003ac565b6200038d565b90508281526020810184848401111562000427576200042662000312565b5b62000434848285620003e2565b509392505050565b600082601f8301126200045457620004536200030d565b5b813562000466848260208601620003f1565b91505092915050565b6000819050919050565b62000484816200046f565b81146200049057600080fd5b50565b600081359050620004a48162000479565b92915050565b600080600060608486031215620004c657620004c56200029e565b5b6000620004d686828701620002f6565b935050602084013567ffffffffffffffff811115620004fa57620004f9620002a3565b5b62000508868287016200043c565b92505060406200051b8682870162000493565b9150509250925092565b6200053081620002c8565b82525050565b60006020820190506200054d600083018462000525565b92915050565b600080604083850312156200056d576200056c6200029e565b5b60006200057d85828601620002f6565b925050602083013567ffffffffffffffff811115620005a157620005a0620002a3565b5b620005af858286016200043c565b9150509250929050565b6000819050919050565b6000620005e4620005de620005d884620002a8565b620005b9565b620002a8565b9050919050565b6000620005f882620005c3565b9050919050565b60006200060c82620005eb565b9050919050565b6200061e81620005ff565b82525050565b60006020820190506200063b600083018462000613565b92915050565b6000819050919050565b620006568162000641565b82525050565b62000667816200046f565b82525050565b60006040820190506200068460008301856200064b565b6200069360208301846200065c565b9392505050565b600081519050919050565b600082825260208201905092915050565b60005b83811015620006d6578082015181840152602081019050620006b9565b83811115620006e6576000848401525b50505050565b6000620006f9826200069a565b620007058185620006a5565b935062000717818560208601620006b6565b620007228162000317565b840191505092915050565b600060408201905062000744600083018562000525565b8181036020830152620007588184620006ec565b90509392505050565b600081905092915050565b600062000779826200069a565b62000785818562000761565b935062000797818560208601620006b6565b80840191505092915050565b6000620007b182856200076c565b9150620007bf82846200076c565b91508190509392505050565b60007fff0000000000000000000000000000000000000000000000000000000000000082169050919050565b6000819050919050565b620008166200081082620007cb565b620007f7565b82525050565b60008160601b9050919050565b600062000836826200081c565b9050919050565b60006200084a8262000829565b9050919050565b620008666200086082620002c8565b6200083d565b82525050565b6000819050919050565b6200088b620008858262000641565b6200086c565b82525050565b60006200089f828762000801565b600182019150620008b1828662000851565b601482019150620008c3828562000876565b602082019150620008d5828462000876565b60208201915081905095945050505050565b7f4e487b7100000000000000000000000000000000000000000000000000000000600052601160045260246000fd5b600062000923826200046f565b91507fffffffffffffffffffffffffffffffffffffffffffffffffffffffffffffffff821415620009595762000958620008e7565b5b60018201905091905056fe608060405260405162000c6638038062000c6683398181016040528101906200002991906200058b565b6200003d828260006200004560201b60201c565b5050620007e2565b62000056836200008860201b60201c565b600082511180620000645750805b156200008357620000818383620000df60201b620000371760201c565b505b505050565b62000099816200011560201b60201c565b8073ffffffffffffffffffffffffffffffffffffffff167fbc7cd75a20ee27fd9adebab32041f755214dbc6bffa90cc0225b39da2e5c2d3b60405160405180910390a250565b60606200010d838360405180606001604052806027815260200162000c3f60279139620001eb60201b60201c565b905092915050565b6200012b816200027d60201b620000641760201c565b6200016d576040517f08c379a0000000000000000000000000000000000000000000000000000000008152600401620001649062000678565b60405180910390fd5b80620001a77f360894a13ba1a3210667c828492db98dca3e2076cc3735a920a3ca505d382bbc60001b620002a060201b620000871760201c565b60000160006101000a81548173ffffffffffffffffffffffffffffffffffffffff021916908373ffffffffffffffffffffffffffffffffffffffff16021790555050565b60606000808573ffffffffffffffffffffffffffffffffffffffff1685604051620002179190620006e7565b600060405180830381855af49150503d806000811462000254576040519150601f19603f3d011682016040523d82523d6000602084013e62000259565b606091505b50915091506200027286838387620002aa60201b60201c565b925050509392505050565b6000808273ffffffffffffffffffffffffffffffffffffffff163b119050919050565b6000819050919050565b606083156200031b576000835114156200031257620002cf856200027d60201b60201c565b62000311576040517f08c379a0000000000000000000000000000000000000000000000000000000008152600401620003089062000750565b60405180910390fd5b5b8290506200032e565b6200032d83836200033660201b60201c565b5b949350505050565b6000825111156200034a5781518083602001fd5b806040517f08c379a0000000000000000000000000000000000000000000000000000000008152600401620003809190620007be565b60405180910390fd5b6000604051905090565b600080fd5b600080fd5b600073ffffffffffffffffffffffffffffffffffffffff82169050919050565b6000620003ca826200039d565b9050919050565b620003dc81620003bd565b8114620003e857600080fd5b50565b600081519050620003fc81620003d1565b92915050565b600080fd5b600080fd5b6000601f19601f8301169050919050565b7f4e487b7100000000000000000000000000000000000000000000000000000000600052604160045260246000fd5b62000457826200040c565b810181811067ffffffffffffffff821117156200047957620004786200041d565b5b80604052505050565b60006200048e62000389565b90506200049c82826200044c565b919050565b600067ffffffffffffffff821115620004bf57620004be6200041d565b5b620004ca826200040c565b9050602081019050919050565b60005b83811015620004f7578082015181840152602081019050620004da565b8381111562000507576000848401525b50505050565b6000620005246200051e84620004a1565b62000482565b90508281526020810184848401111562000543576200054262000407565b5b62000550848285620004d7565b509392505050565b600082601f83011262000570576200056f62000402565b5b8151620005828482602086016200050d565b91505092915050565b60008060408385031215620005a557620005a462000393565b5b6000620005b585828601620003eb565b925050602083015167ffffffffffffffff811115620005d957620005d862000398565b5b620005e78582860162000558565b9150509250929050565b600082825260208201905092915050565b7f455243313936373a206e657720696d706c656d656e746174696f6e206973206e60008201527f6f74206120636f6e747261637400000000000000000000000000000000000000602082015250565b600062000660602d83620005f1565b91506200066d8262000602565b604082019050919050565b60006020820190508181036000830152620006938162000651565b9050919050565b600081519050919050565b600081905092915050565b6000620006bd826200069a565b620006c98185620006a5565b9350620006db818560208601620004d7565b80840191505092915050565b6000620006f58284620006b0565b915081905092915050565b7f416464726573733a2063616c6c20746f206e6f6e2d636f6e7472616374000000600082015250565b600062000738601d83620005f1565b9150620007458262000700565b602082019050919050565b600060208201905081810360008301526200076b8162000729565b9050919050565b600081519050919050565b60006200078a8262000772565b620007968185620005f1565b9350620007a8818560208601620004d7565b620007b3816200040c565b840191505092915050565b60006020820190508181036000830152620007da81846200077d565b905092915050565b61044d80620007f26000396000f3fe6080604052366100135761001161001d565b005b61001b61001d565b005b610025610091565b610035610030610093565b6100a2565b565b606061005c83836040518060600160405280602781526020016103f1602791396100c8565b905092915050565b6000808273ffffffffffffffffffffffffffffffffffffffff163b119050919050565b6000819050919050565b565b600061009d61014e565b905090565b3660008037600080366000845af43d6000803e80600081146100c3573d6000f35b3d6000fd5b60606000808573ffffffffffffffffffffffffffffffffffffffff16856040516100f291906102e5565b600060405180830381855af49150503d806000811461012d576040519150601f19603f3d011682016040523d82523d6000602084013e610132565b606091505b5091509150610143868383876101a5565b925050509392505050565b600061017c7f360894a13ba1a3210667c828492db98dca3e2076cc3735a920a3ca505d382bbc60001b610087565b60000160009054906101000a900473ffffffffffffffffffffffffffffffffffffffff16905090565b6060831561020857600083511415610200576101c085610064565b6101ff576040517f08c379a00000000000000000000000000000000000000000000000000000000081526004016101f690610359565b60405180910390fd5b5b829050610213565b610212838361021b565b5b949350505050565b60008251111561022e5781518083602001fd5b806040517f08c379a000000000000000000000000000000000000000000000000000000000815260040161026291906103ce565b60405180910390fd5b600081519050919050565b600081905092915050565b60005b8381101561029f578082015181840152602081019050610284565b838111156102ae576000848401525b50505050565b60006102bf8261026b565b6102c98185610276565b93506102d9818560208601610281565b80840191505092915050565b60006102f182846102b4565b915081905092915050565b600082825260208201905092915050565b7f416464726573733a2063616c6c20746f206e6f6e2d636f6e7472616374000000600082015250565b6000610343601d836102fc565b915061034e8261030d565b602082019050919050565b6000602082019050818103600083015261037281610336565b9050919050565b600081519050919050565b6000601f19601f8301169050919050565b60006103a082610379565b6103aa81856102fc565b93506103ba818560208601610281565b6103c381610384565b840191505092915050565b600060208201905081810360008301526103e88184610395565b90509291505056fe416464726573733a206c6f772d6c6576656c2064656c65676174652063616c6c206661696c6564a26469706673582212201a2d2a5d2e8dd48653fe90087730584b1370f6eb220af3217f3a69b4a773d8fc64736f6c63430008090033416464726573733a206c6f772d6c6576656c2064656c65676174652063616c6c206661696c6564a26469706673582212203d6a805f672cc6c94c4e0bcbfd520dd61516777c35795f6c510f00e1b0947fd064736f6c63430008090033",
  "devdoc": {
    "kind": "dev",
    "methods": {},
    "version": 1
  },
  "userdoc": {
    "kind": "user",
    "methods": {},
    "version": 1
  },
  "storageLayout": {
    "storage": [
      {
        "astId": 3870,
        "contract": "contracts/SmartWalletFactory.sol:SmartWalletFactory",
        "label": "nonces",
        "offset": 0,
        "slot": "0",
        "type": "t_mapping(t_bytes32,t_uint256)"
      }
    ],
    "types": {
      "t_bytes32": {
        "encoding": "inplace",
        "label": "bytes32",
        "numberOfBytes": "32"
      },
      "t_mapping(t_bytes32,t_uint256)": {
        "encoding": "mapping",
        "key": "t_bytes32",
        "label": "mapping(bytes32 => uint256)",
        "numberOfBytes": "32",
        "value": "t_uint256"
      },
      "t_uint256": {
        "encoding": "inplace",
        "label": "uint256",
        "numberOfBytes": "32"
      }
    }
  }
}